:020000040000FA
:0600000009EF20F01200E0
:020006001200E6
:06000800DEEF1BF0120008
:01000E0000F1
:01000F0000F0
:03001000000000ED
:0600180060EF1BF0120076
:02001E000800D8
:100020004141000048010000280000002641000076
:10003000E50000001B0000000F000000B1010000FF
:1000400004000000C5400000000F00006100000037
:100050007D40000000010000480000000E0000008C
:10006000B7010000010000006A400000900100009C
:10007000130000004A400000700100002000000052
:10008000D9CFE6FFE1CFD9FF020EE126DE6ADD6AB5
:100090005CD8E80EE66E030EE66E10D8E552E55227
:1000A00001017B51FDE07B6B0BEC14F016EC1EF0B4
:1000B00099DBDDD9BDDB8FEC11F0F2D7D9CFE6FFAC
:1000C000E1CFD9FF040EE126DE6ADD6ADECF10F053
:1000D000DDCF11F0FD0EDBCF12F0FE0EDBCF13F003
:1000E00011501318E8AE02D0133404D01250105C33
:1000F000135011581DE2020EDB6A030EDB6A020E7A
:10010000DBCF10F0030EDBCF11F0D890115004E6D6
:10011000EE0E105C000E115806E2020EDB2A030EF2
:10012000EEE3DB2AECD7DF2A010ED0E3DB2ACED7C1
:10013000040EE15C02E2E16AE552E16EE552E7CFCE
:10014000D9FF1200956A836A1200FCDF00EC0DF003
:1001500054EC13F058EC1BF002EC1AF0AAEC0EF081
:10016000A1EC10F0F40EE66E010EE66EA7DFE5528C
:10017000E552570EE66E120EE66E2AEC17F0E552C7
:10018000E552660EE66EB70EE66E8DEC18F0E5529F
:10019000E552020EE66EE66A68EC19F0E552E552A9
:1001A000320EE66EE66A99EC19F0E552E55212005D
:1001B0000101010E501903E1515101E1010C000C44
:1001C00001010A0E501903E1515101E1010C000C2B
:1001D0000101010E521901E153510FE00A0ED880BE
:1001E0005255000E53550AE252C110F0116A010E29
:1001F0001016101803E1115001E1010C000C01016F
:10020000010E541901E155510FE00A0ED8805455E2
:10021000000E55550AE254C110F0116A010E101675
:10022000101803E1115001E1010C000CD9CFE6FFD9
:10023000E1CFD9FFFE0EDBCF11F0800E11141AE1D1
:10024000FD0EDBCF12F0FE0EDBCF13F0133404E211
:1002500012500708000E13540DE3FD0EDBCFE9FF2B
:10026000FE0EDBCFEAFF000EE926010EEA22EF5078
:100270008310836EE552E7CFD9FF1200D9CFE6FF96
:10028000E1CFD9FFFE0EDBCF11F0800E11141AE181
:10029000FD0EDBCF12F0FE0EDBCF13F0133404E2C1
:1002A00012500708000E13540DE3FD0EDBCFE9FFDB
:1002B000FE0EDBCFEAFF000EE926010EEA22EF1C5C
:1002C0008314836EE552E7CFD9FF1200D9CFE6FF42
:1002D000E1CFD9FFFD0EDBCFE9FFFE0EDBCFEAFF5A
:1002E000080EE926010EEA22EF0415E1FD0EDBCF30
:1002F000E6FFFE0EDBCFE6FFC1DFE552E552FD0E65
:10030000DBCFE9FFFE0EDBCFEAFF080EE926010E88
:10031000EA22EF6A15D0FD0EDBCFE6FFFE0EDBCF43
:10032000E6FF84DFE552E552FD0EDBCFE9FFFE0E6E
:10033000DBCFEAFF080EE926010EEA22010EEF6E7E
:10034000E552E7CFD9FF1200D9CFE6FFE1CFD9FFC1
:10035000020EE126DE6ADD6ADECF10F0DDCF11F09D
:10036000D890115004E60E0E105C000E115821E2D8
:10037000DECFE6FFDDCFE6FF59DFE552E552F40EB2
:10038000E66E010EE66E9ADEE552E552DECFE6FF3E
:10039000DDCFE6FF73DFE552E552F40EE66E010EA7
:1003A000E66E8CDEE552E552DF2A010ED5E3DB2A4C
:1003B000D3D7020EE15C02E2E16AE552E16EE5525A
:1003C000E7CFD9FF1200000EE66EE66A2FDFE55296
:1003D000E5521200000EE66EE66A50DFE552E55285
:1003E0001200040EE66EE66A21DFE552E5521200C5
:1003F000040EE66EE66A42DFE552E5521200060E92
:10040000E66EE66A13DFE552E5521200060EE66E6E
:10041000E66A34DFE552E5521200010EE66EE66A46
:1004200005DFE552E5521200010EE66EE66A26DFB0
:10043000E552E5521200050EE66EE66AF7DEE55279
:10044000E5521200050EE66EE66A18DFE552E55247
:100450001200070EE66EE66AE9DEE552E55212008A
:10046000070EE66EE66A0ADFE552E5521200010168
:100470001929106E140E116E0E6E10C009F017ECD3
:1004800020F005C019F101010528106E140E116E3F
:100490000E6E10C009F017EC20F005C01AF1010132
:1004A000195101E117071A5101E118071051050A06
:1004B00001E17DD1010A01E122D1070A01E1C7D0A2
:1004C000010A6CE0030A12E0010A01E083D1010E87
:1004D00042190BE1435101E084D1010E461905E1B7
:1004E000475101E07ED1010E106F1200A1EC10F017
:1004F0000101426B436B67DF89DFABDF240EE66EE1
:100500003A0EE66EE66AE66A25EC13F0E552E5522D
:10051000E552E55218C110F0116A126A136A18C147
:10052000E6FF11C0E6FF12C0E6FF13C0E6FF0E0EA5
:10053000E66EE66AFEEC11F0146E060EE15E1450F3
:10054000130EE66E3A0EE66EE66A010EE66E25ECD6
:1005500013F0E552E552E552E55217C110F0116A69
:10056000126A136A17C1E6FF11C0E6FF12C0E6FF68
:1005700013C0E6FF0E0EE66E010EE66EFEEC11F005
:10058000146E060EE15E14500101175101E029D1ED
:10059000020E106F1FDF13C117F11200A1EC10F053
:1005A0000101426B436B1DDF54DF050EE66E3A0E10
:1005B000E66EE66AE66A25EC13F0E552E552E5528E
:1005C000E55218C110F0116A126A136A18C1E6FFE9
:1005D00011C0E6FF12C0E6FF13C0E6FF0E0EE66E86
:1005E000E66AFEEC11F0146E060EE15E1450F40E95
:1005F000E66E390EE66EE66A010EE66E25EC13F045
:10060000E552E552E552E55217C110F0116A126A3F
:10061000136A17C1E6FF11C0E6FF12C0E6FF13C060
:10062000E6FF0E0EE66E010EE66EFEEC11F0146EA5
:10063000060EE15E14500101175101E0D2D0030E05
:10064000106FD6DE14C117F112C118F11200A1EC1F
:1006500010F00101426B436BE0DE02DFD0DEE50EFD
:10066000E66E390EE66EE66AE66A25EC13F0E552B0
:10067000E552E552E55218C110F0116A126A136A88
:1006800018C1E6FF11C0E6FF12C0E6FF13C0E6FF87
:100690000E0EE66EE66AFEEC11F0146E060EE15EDA
:1006A0001450D40EE66E390EE66EE66A010EE66E62
:1006B00025EC13F0E552E552E552E55217C110F072
:1006C000116A126A136A17C1E6FF11C0E6FF12C071
:1006D000E6FF13C0E6FF0E0EE66E010EE66EFEECC0
:1006E00011F0146E060EE15E14500101175101E085
:1006F00078D0040E106F98DE16C117F11200A1EC2D
:1007000010F00101426B436B96DE79DEC60EE66E99
:10071000390EE66EE66AE66A25EC13F0E552E5521C
:10072000E552E55218C110F0116A126A136A18C135
:10073000E6FF11C0E6FF12C0E6FF13C0E6FF0E0E93
:10074000E66EE66AFEEC11F0146E060EE15E1450E1
:10075000B50EE66E390EE66EE66A010EE66E25EC23
:1007600013F0E552E552E552E55217C110F0116A57
:10077000126A136A17C1E6FF11C0E6FF12C0E6FF56
:1007800013C0E6FF0E0EE66E010EE66EFEEC11F0F3
:10079000146E060EE15E14500101175122E1010EA4
:1007A000106F50DE15C118F111C117F11200A1EC44
:1007B00010F00101426B436B0DDE36DE27DE50DEAA
:1007C000010119510C0803E30CDE1BEF02F010DEEF
:1007D00022EF02F0A1EC10F0010E0101426F436B19
:1007E000106F1200010193050CE1936B000185511C
:1007F00008E181C011F182C013F183C014F184C0FB
:1008000016F192C110F0116A126A136A92C1E6FFE2
:1008100011C0E6FF12C0E6FF13C0E6FF0F0EE66E42
:10082000E66AFEEC11F0146E060EE15E1450120042
:10083000130E01013E1901E13F5102E11BEF0BF0E4
:10084000110E3E1901E13F5102E1CAEF0AF0100E0C
:100850003E1901E13F5102E182EF0AF00F0E3E190D
:1008600001E13F5102E13BEF0AF00A0E3E1901E1BE
:100870003F5102E11EEF0AF0090E3E1901E13F511E
:1008800002E19EEF09F02B0E3E1901E13F5102E11A
:1008900066EF09F0290E3E1901E13F5102E1FFEF39
:1008A00008F0270E3E1901E13F5102E19DEF08F0EB
:1008B0002A0E3E1901E13F5102E16CEF08F0280ECB
:1008C0003E1901E13F5101E1A4D3260E3E1901E199
:1008D0003F5101E13BD3220E3E1901E13F5101E1BD
:1008E000F5D21C0E3E1901E13F5101E1AFD21A0EC3
:1008F0003E1901E13F5101E18ED2190E3E1901E18D
:100900003F5101E16DD2180E3E1901E13F5101E165
:100910004FD2170E3E1901E13F5101E106D2160EEA
:100920003E1901E13F5101E1C0D1140E3E1901E130
:100930003F5101E177D11E0E3E1901E13F5101E126
:1009400015D11D0E3E1901E13F5101E1C8D0080E3D
:100950003E1901E13F5172E0060E3E1901E13F519F
:100960001DE03E5101E13F5101E0120021DC010890
:1009700002E06DEF0BF00101010E44190EE145514B
:1009800002E06DEF0BF0A1EC10F0060E01013E6FDE
:100990003F6B426B436B466B476B1200A1EC10F050
:1009A0000101426B436B466B476BB00EE66E390E2E
:1009B000E66E070EE66EE66A25EC13F0E552E552A8
:1009C000E552E552AE0EE66E390EE66EE66A010EAF
:1009D000E66E25EC13F0E552E552E552E552A20E23
:1009E000E66E390EE66E020EE66E010EE66E25EC40
:1009F00013F0E552E552E552E552D8EC00F000095B
:100A000006E0010E0101406F416B140EE2D0E0ECF4
:100A100000F0000907E0A1EC10F001013E6B3F6B14
:100A2000106BEAD0E8EC00F0000901E0F1D0FFEC37
:100A300000F0000902E16DEF0BF08CD0A1EC10F09A
:100A4000AE0EE66E390EE66EE66AE66A25EC13F047
:100A5000E552E552E552E552940EE66E390EE66E29
:100A6000020EE66EE66A25EC13F0E552E552E55219
:100A7000E552850EE66E390EE66E020EE66E010E4A
:100A8000E66E25EC13F0E552E552E552E552D8EC5E
:100A900000F000090AE0020E0101406F416B1C0EDC
:100AA0003E6F3F6B426B436B9AD0E0EC00F0000965
:100AB0000AE0A1EC10F001013E6B3F6B010E446FA8
:100AC000456B106B9CD0E8EC00F0000901E0A8D069
:100AD000FFEC00F0000902E16DEF0BF099D0A1EC02
:100AE00010F00101426B436B940EE66E390EE66E18
:100AF000020EE66EE66A25EC13F0E552E552E55289
:100B0000E552AE0EE66E390EE66EE66A010EE66E50
:100B100025EC13F0E552E552E552E552850EE66EFE
:100B2000390EE66E020EE66E010EE66E25EC13F04F
:100B3000E552E552E552E552D8EC00F0000902E03A
:100B4000030E43D0E0EC00F0000950E1E8EC00F0C7
:100B5000000903E0080EDFEF09F0FFEC00F00009E8
:100B600002E16DEF0BF01E0EDFEF09F0A1EC10F0CB
:100B7000850EE66E390EE66E020EE66EE66A25EC2E
:100B800013F0E552E552E552E552AE0EE66E390E2F
:100B9000E66EE66A010EE66E25EC13F0E552E552CC
:100BA000E552E552770EE66E390EE66E020EE66EFF
:100BB000010EE66E25EC13F0E552E552E552E552E2
:100BC000D8EC00F000090EE0040E0101406F416B0B
:100BD000090E3E6F3F6B426B436B466B476B396B45
:100BE000FFEF09F0E0EC00F000090EE0A1EC10F0DE
:100BF0000101106B3E6B3F6B010E446F456B426F02
:100C0000436B466F476B1200E8EC00F0000902E00E
:100C10001D0ED5D3FFEC00F0000902E16DEF0BF0E3
:100C2000060ECDD3A1EC10F00101426B436B6D0EAB
:100C3000E66E390EE66E040EE66EE66A25EC13F0FB
:100C4000E552E552E552E552AE0EE66E390EE66E1D
:100C5000E66A010EE66E25EC13F0E552E552E55228
:100C6000E552640EE66E390EE66E020EE66E010E79
:100C7000E66E25EC13F0E552E552E552E552D8EC6C
:100C800000F0000902E0180E07D3E0EC00F00009C4
:100C900001E008D3E8EC00F0000945E1FFEC00F0CA
:100CA000000902E16DEF0BF079D0A1EC10F05B0EC2
:100CB000E66E390EE66E020EE66EE66A25EC13F07D
:100CC000E552E552E552E552AE0EE66E390EE66E9D
:100CD000E66AE66A25EC13F0E552E552E552E55284
:100CE000520EE66E390EE66E020EE66E010EE66EEE
:100CF00025EC13F0E552E552E552E552D8EC00F050
:100D0000000902E0190EC8D2E0EC00F0000901E091
:100D1000C9D2E8EC00F0000949E1FFEC00F000095D
:100D200002E16DEF0BF0170E4AD3A1EC10F05B0E51
:100D3000E66E390EE66E020EE66EE66A25EC13F0FC
:100D4000E552E552E552E552AE0EE66E390EE66E1C
:100D5000E66A010EE66E25EC13F0E552E552E55227
:100D6000E552520EE66E390EE66E020EE66E010E8A
:100D7000E66E25EC13F0E552E552E552E552D8EC6B
:100D800000F0000902E01A0E87D2E0EC00F0000942
:100D900001E088D2E8EC00F0000902E0160E0FD363
:100DA000FFEC00F0000902E16DEF0BF0140E07D329
:100DB000A1EC10F0480EE66E390EE66E020EE66EFD
:100DC000E66A25EC13F0E552E552E552E5520101E1
:100DD0000A0E116F0D0E156F146F100E126FA6D242
:100DE000A1EC10F03E0EE66E390EE66E020EE66ED7
:100DF000E66A25EC13F0E552E552E552E5520101B1
:100E00001E0E116F230E156F050E1E0E146F230E8E
:100E1000126F050E90D1A1EC10F0340EE66E390E73
:100E2000E66E020EE66EE66A25EC13F0E552E55238
:100E3000E552E5520101600E116F630E156F030E4E
:100E4000600E146F630E126F030E75D1A1EC10F0DB
:100E5000260EE66E390EE66E020EE66EE66A25ECAA
:100E600013F0E552E552E552E552AE0EE66E390E4C
:100E7000E66EE66AE66A25EC13F0E552E552E552C5
:100E8000E552180EE66E390EE66E020EE66E010EA3
:100E9000E66E25EC13F0E552E552E552E552D8EC4A
:100EA00000F0000902E0260EF7D1E0EC00F00009A6
:100EB00001E0F8D1E8EC00F0000906E1FFEC00F0F9
:100EC000000902E16DEF0BF0220E79D2A1EC10F0D7
:100ED000260EE66E390EE66E020EE66EE66A25EC2A
:100EE00013F0E552E552E552E552AE0EE66E390ECC
:100EF000E66EE66A010EE66E25EC13F0E552E55269
:100F0000E552E552180EE66E390EE66E020EE66EFA
:100F1000010EE66E25EC13F0E552E552E552E5527E
:100F2000D8EC00F0000902E0270EB6D1E0EC00F0AA
:100F3000000901E0B7D1E8EC00F0000905E1FFECA1
:100F400000F0000901E1C9D31C0E39D2A1EC10F068
:100F5000240EE66E3A0EE66EE66AE66A25EC13F0BB
:100F6000E552E552E552E55215C110F0116A126AD8
:100F7000136A15C1E6FF11C0E6FF12C0E6FF13C0F9
:100F8000E6FF0E0EE66EE66AFEEC11F0146E060E3B
:100F9000E15E1450130EE66E3A0EE66EE66A010E3E
:100FA000E66E25EC13F0E552E552E552E55211C12B
:100FB00010F0116A126A136A11C1E6FF11C0E6FF50
:100FC00012C0E6FF13C0E6FF0E0EE66E010EE66EDF
:100FD000FEEC11F0146E060EE15E1450D8EC00F039
:100FE000000902E0280E58D1E0EC00F0000901E011
:100FF00059D1E8EC00F0000903E00101152B07D0FE
:10100000FFEC00F0000901E168D301011507260E8D
:10101000E7D1A1EC10F0240EE66E3A0EE66EE66A19
:10102000E66A25EC13F0E552E552E552E55215C1AA
:1010300010F0116A126A136A15C1E6FF11C0E6FFCB
:1010400012C0E6FF13C0E6FF0E0EE66EE66AFEEC87
:1010500011F0146E060EE15E1450130EE66E3A0E99
:10106000E66EE66A010EE66E25EC13F0E552E552F7
:10107000E552E55211C110F0116A126A136A11C1EA
:10108000E6FF11C0E6FF12C0E6FF13C0E6FF0E0E3A
:10109000E66E010EE66EFEEC11F0146E060EE15ED9
:1010A0001450D8EC00F0000902E02A0EF5D0E0EC74
:1010B00000F0000901E0F6D0E8EC00F0000903E0E0
:1010C0000101112B07D0FFEC00F0000901E105D36D
:1010D00001011107280E84D1A1EC10F0010111517A
:1010E000155D000826E3A1EC10F0450EE66EE66AF9
:1010F000030EE66EE66A25EC13F0E552E552E55282
:10110000E5520B0EE66E390EE66E020EE66E010E2D
:10111000E66E25EC13F0E552E552E552E552E80E95
:10112000E66E030EE66E5EEC00F0E552E552180E38
:1011300046D11151155D136FF9D0A1EC10F0E50EF9
:10114000E66E390EE66EE66AE66A25EC13F0E552C5
:10115000E552E552E55212C110F0116A126A136AA3
:1011600012C1E6FF11C0E6FF12C0E6FF13C0E6FFA2
:101170000E0EE66EE66AFEEC11F0146E060EE15EEF
:101180001450D40EE66E390EE66EE66A010EE66E77
:1011900025EC13F0E552E552E552E55214C110F08A
:1011A000116A126A136A14C1E6FF11C0E6FF12C089
:1011B000E6FF13C0E6FF0E0EE66E010EE66EFEECD5
:1011C00011F0146E060EE15E1450D8EC00F0000928
:1011D00002E0290E61D0E0EC00F0000963E1E8ECE8
:1011E00000F0000903E00101122B07D0FFEC00F032
:1011F000000901E172D201011207270EF1D0A1EC22
:1012000010F0E50EE66E390EE66EE66AE66A25EC4B
:1012100013F0E552E552E552E55212C110F0116AA1
:10122000126A136A12C1E6FF11C0E6FF12C0E6FFA0
:1012300013C0E6FF0E0EE66EE66AFEEC11F0146EC9
:10124000060EE15E1450D40EE66E390EE66EE66AC6
:10125000010EE66E25EC13F0E552E552E552E5523B
:1012600014C110F0116A126A136A14C1E6FF11C0AA
:10127000E6FF12C0E6FF13C0E6FF0E0EE66E010E9B
:10128000E66EFEEC11F0146E060EE15E1450D8EC22
:1012900000F0000903E02B0E010174D0E0EC00F037
:1012A000000904E0A1EC10F0010140D0E8EC00F0EE
:1012B000000903E00101142B07D0FFEC00F0000946
:1012C00001E10BD201011407290E8AD0A1EC10F024
:1012D00001011451125D000826E3A1EC10F0450E47
:1012E000E66EE66A030EE66EE66A25EC13F0E5525A
:1012F000E552E552E5520B0EE66E390EE66E020E31
:10130000E66E010EE66E25EC13F0E552E552E5526D
:10131000E552E80EE66E030EE66E5EEC00F0E55276
:10132000E552190E4CD01451125D166F3E6B3F6B97
:10133000010E446F456B426F436B1200FA0EE66E6E
:10134000380EE66EE66AE66A25EC13F0E552E552E1
:10135000E552E552040E0101395D53E3E8D9000975
:101360006CE00101396B000EE66EE66AE8D9E552E1
:10137000E55201080AE10101010E401906E141515F
:1013800004E1140E3E6F3F6B3AD0010EE66EE66A42
:10139000D6D9E552E552010814E10101020E4019C7
:1013A00010E141510EE10A0E276F286BE80EE66E40
:1013B000030EE66E68EC19F0E552E5520C0E0101E1
:1013C0000FD0020EE66EE66ABAD9E552E552010880
:1013D0000AE10101030E401906E1415104E10F0E3B
:1013E0003E6F3F6B12000A0E01013E6F3F6BE80E2D
:1013F000E66E030EE66E68EC19F0E552E552A1EFD9
:1014000010F06CD9000901E168D1F80EE66E380ED3
:10141000E66E39C1E6FF010EE66E25EC13F0E552EB
:10142000E552E552E55201013951EA6A7C0FE96E55
:101430000F0EEA227BCFEFFF392B1200A1EC10F048
:10144000E90EE66E380EE66E010EE66EE66A25ECF3
:1014500013F0E552E552E552E5520101785101E100
:101460003CD1A1EC10F00101786B0101106B3E6BD7
:101470003F6B010E0BD1A1EC10F0AE0EE66E390EF3
:10148000E66EE66A010EE66E25EC13F0E552E552D3
:10149000E552E552DD0EE66E380EE66E020EE66EA1
:1014A000E66A25EC13F0E552E552E552E552D10E1D
:1014B000E66E380EE66E020EE66E010EE66E25EC66
:1014C00013F0E552E552E552E552D8EC00F0000980
:1014D0000AE0130E01013E6F3F6BA1EC10F0010119
:1014E000396B010E92D0E0EC00F0000901E0C4D0AD
:1014F000E8EC00F000094CE1FFEC00F0000901E12C
:10150000ECD08ED0A1EC10F0AE0EE66E390EE66E89
:10151000E66AE66A25EC13F0E552E552E552E5523B
:10152000C30EE66E380EE66E020EE66EE66A25EC37
:1015300013F0E552E552E552E552B40EE66E380E70
:10154000E66E020EE66E010EE66E25EC13F0E55235
:10155000E552E552E552D8EC00F0000909E0130E1F
:1015600001013E6F3F6B396BA1EC10F0020E4CD0C5
:10157000E0EC00F0000901E07FD0E8EC00F00009A9
:1015800002E00F0E54D0FFEC00F0000901E1A5D0FD
:10159000110E4DD0A1EC10F0010E0101446F456B0E
:1015A000AE0EE66E390EE66EE66A010EE66E25ECCC
:1015B00013F0E552E552E552E552C30EE66E380EE1
:1015C000E66E020EE66EE66A25EC13F0E552E55291
:1015D000E552E552B40EE66E380EE66E020EE66E89
:1015E000010EE66E25EC13F0E552E552E552E552A8
:1015F000D8EC00F000090CE0130E01013E6F3F6BC8
:10160000396BA1EC10F0030E0101406F416B120029
:10161000E0EC00F0000930E1E8EC00F0000902E045
:10162000100E05D0FFEC00F0000957E00F0E01018D
:101630003E6F3F6B1200A40EE66E380EE66EE66A51
:10164000E66A25EC13F0E552E552E552E552040E48
:101650000101395D1EE36BD800093FE040C110F085
:1016600041C111F01006000E115A10C0E6FF11C062
:10167000E6FFB0D8E552E552A1EC10F001013C6B59
:101680003D6B3E6B3F6B010E446F456B426F436B8E
:10169000120024D8000921E07BCF10F0116A126AF1
:1016A000136A7BCFE6FF11C0E6FF12C0E6FF13C04E
:1016B000E6FF39C1E6FF010EE66EFEEC11F0146E96
:1016C000060EE15E145001013951EA6A7C0FE96EA1
:1016D0000F0EEA227BCFEFFF392B1200D9CFE6FFA6
:1016E000E1CFD9FFE652DF6ADF500F081AE3EA6A5A
:1016F000DF34FE0BEA36E96E480EE926010EEA22D7
:10170000010EEE180CE1ED500AE1DF50EA6A290FF4
:10171000E96E010EEA22EFCF7BFF010E03D0DF2A34
:10172000E3D7000EE552E552E7CFD9FF12000101E1
:10173000010E501903E1515101E1010C000CD9CF08
:10174000E6FFE1CFD9FF020EE126DE6ADD6ADECFD9
:1017500010F0DDCF11F0D890115004E6040E105CAB
:10176000000E11582AE2DECFE9FFDDCFEAFF7C0E42
:10177000E9260F0EEA22EFCF10F0FD0EDBCF11F0BD
:10178000FE0EDBCF12F0D89011361236D8901136FB
:1017900012361B0E1126010E1222DE501124E96EA4
:1017A000DD501220EA6EEF50105C02E0000E06D011
:1017B000DF2A010ECCE3DB2ACAD7010E106E020E1F
:1017C000E15C02E2E16AE552E16E1050E552E7CFDA
:1017D000D9FF1200D9CFE6FFE1CFD9FF020EE126F3
:1017E000DE6ADD6ADECF10F0DDCF11F0D890115047
:1017F00004E6040E105C000E115828E2DECFE9FF6B
:10180000DDCFEAFF7C0EE9260F0EEA22EF50E66EEE
:10181000FD0EDBCF10F0FE0EDBCF11F0D8901036AE
:101820001136D890103611361B0E1026010E1122DB
:10183000DE501024E96EDD501120EA6EE552E750CB
:10184000EF6EDF2A010ECEE3DB2ACCD7020EE15C7D
:1018500002E2E16AE552E16EE552E7CFD9FF1200FC
:10186000D9CFE6FFE1CFD9FF040EE126DE6ADD6ABB
:10187000DECF10F0DDCF11F0126A136A11AE02D084
:1018800012681368D950FB0FE96EFF0EDA20EA6E7A
:10189000EE50105CEE501158EE501258EE501358A6
:1018A0001DE2020EDB6A030EDB6A020EDBCF10F0D4
:1018B000030EDBCF11F0D890115004E6050E105C3A
:1018C000000E115806E2020EDB2A030EEEE3DB2ABD
:1018D000ECD7DF2A010ECCE3DB2ACAD7040EE15C89
:1018E00002E2E16AE552E16EE552E7CFD9FF12006C
:1018F000D9CFE6FFE1CFD9FF040EE126DE6ADD6A2B
:10190000DECF10F0DDCF11F0126A136A11AE02D0F3
:1019100012681368D950FB0FE96EFF0EDA20EA6EE9
:10192000EE50105CEE501158EE501258EE50135815
:101930001DE2020EDB6A030EDB6A020EDBCF10F043
:10194000030EDBCF11F0D890115004E6EE0E105CC0
:10195000000E115806E2020EDB2A030EEEE3DB2A2C
:10196000ECD7DF2A010ECCE3DB2ACAD7040EE15CF8
:1019700002E2E16AE552E16EE552E7CFD9FF1200DB
:10198000D9CFE6FFE1CFD9FF0F0E8116FE0EDB5057
:10199000F00B81128186010EE66EE66AE66AE66A5F
:1019A000A7DFE552E552E552E5528196010EE66E5B
:1019B000E66AE66AE66A9CDFE552E552E552E552E0
:1019C0000F0E8116FE0EDB38F00B81128186010EA0
:1019D000E66EE66AE66AE66A8BDFE552E552E552B4
:1019E000E5528196010EE66EE66AE66AE66A80DFF7
:1019F000E552E552E552E552E552E7CFD9FF120034
:101A0000D9CFE6FFE1CFD9FFE652936A190EE66E11
:101A1000E66AE66AE66A6CDFE552E552E552E552AF
:101A20000F0E8116F80E81160F0E8116300E8112E0
:101A30008186010EE66EE66AE66AE66A59DFE552DD
:101A4000E552E552E5528196010EE66EE66AE66AD7
:101A5000E66A4EDFE552E552E552E5520F0E811679
:101A6000300E81128186010EE66EE66AE66AE66A4B
:101A70003FDFE552E552E552E5528196010EE66EF2
:101A8000E66AE66AE66A34DFE552E552E552E55277
:101A90000F0E8116300E81128186010EE66EE66A07
:101AA000E66AE66A25DFE552E552E552E55281969F
:101AB000010EE66EE66AE66AE66A1ADFE552E5526C
:101AC000E552E5520F0E8116818A8186010EE66E7F
:101AD000E66AE66AE66A0CDFE552E552E552E5524F
:101AE0008196010EE66EE66AE66AE66A01DFE55275
:101AF000E552E552E552280EE66E42DFE5520C0E45
:101B0000E66E3EDFE552E552E552E7CFD9FF12001F
:101B1000D9CFE6FFE1CFD9FF020EE126DF6A010E41
:101B2000DB6A81940F0EE66EE66AE66AE66A98DE84
:101B3000E552E552E552E5520F0E81128186E66EBE
:101B4000E66AE66AE66A8CDEE552E552E552E5525F
:101B50000F0E8114E76E010EE7CFDBFF81960F0EAB
:101B6000E66EE66AE66AE66A7BDEE552E552E55233
:101B7000E5520F0E81128186E66EE66AE66AE66A33
:101B80006FDEE552E552E552E5520F0E8114DF6E2D
:101B9000010EDB50DF128196010EE66EE66AE66A00
:101BA000E66A5EDEE552E552E552E552DF50106E20
:101BB000020EE15C02E2E16AE552E16E1050E5528C
:101BC000E7CFD9FF1200D9CFE6FFE1CFD9FFE65228
:101BD000DF6A9EDFDF6EDFBEFCD7DF50E552E552E5
:101BE000E7CFD9FF1200D9CFE6FFE1CFD9FF0F0E23
:101BF0008116FE0EDB5081128186050EE66EE66AC6
:101C0000E66AE66A2DDEE552E552E552E552819636
:101C1000050EE66EE66AE66AE66A22DEE552E552FF
:101C2000E552E552E552E7CFD9FF1200D9CFE6FFE2
:101C3000E1CFD9FF8194050EE66EE66AE66AE66AB0
:101C40000FDEE552E552E552E552FE0EDBCFE6FF30
:101C5000CADFE552FE0EDB38F00BE66EC4DFE5525C
:101C6000E552E7CFD9FF1200D9CFE6FFE1CFD9FF88
:101C70008184050EE66EE66AE66AE66AF1DDE55203
:101C8000E552E552E552FE0EDBCFE6FFACDFE55252
:101C9000FE0EDB38F00BE66EA6DFE5528194E552CE
:101CA000E7CFD9FF1200D9CFE6FFE1CFD9FFFE0E73
:101CB000DBCFE6FFD9DFE552E552E7CFD9FF1200CF
:101CC000D9CFE6FFE1CFD9FFFE0EDBCFE6FFCCDFB9
:101CD000E552E552E7CFD9FF1200D9CFE6FFE1CFB9
:101CE000D9FFFD0EDBCFF6FFFE0EDBCFF7FF0800BE
:101CF000F5500FE0FD0EDBCFF6FFDB2AFE0EDBCF4B
:101D0000F7FF01E3DB2A0800F550E66ED9DFE55264
:101D1000E8D7E552E7CFD9FF1200D9CFE6FFE1CFF0
:101D2000D9FFE652FD0EDB500F0B106EFE0EDB509E
:101D3000010B400DF3501024DF6E7F0EDF14800F77
:101D4000DF6EDFCFE6FF72DFE552E552E552E7CF07
:101D5000D9FF1200010EE66E69DFE552E66AE66A17
:101D6000DCDFE552E5521200D9CFE6FFE1CFD9FF23
:101D7000050EE126010EF36EDB6E020EDB6A030E2A
:101D8000DB6A040EDB6ADF6ADFCF10F0116A10BE77
:101D90001168FB0EDBCF12F0FC0EDBCF13F01150FD
:101DA0001318E8AE02D0133404D01250105C135054
:101DB00011582DE2FD0EDBCF10F0FE0EDBCF11F03F
:101DC000126A136A11AE02D012681368D950010F5B
:101DD000E96EDACFEAFF10C00BF011C00CF012C0B0
:101DE0000DF013C00EF0EECF06F0EECF07F0EECF01
:101DF00008F0EFCF09F04EEC1FF005C0EDFF04C076
:101E0000EDFF03C0EDFF02C0EFFFDF2ABDD7010EDB
:101E1000DBCF10F0020EDBCF11F0030EDBCF12F0A0
:101E2000040EDBCF13F010C006F011C007F012C093
:101E300008F013C009F0050EE15C02E2E16AE55228
:101E4000E16EE552E7CFD9FF1200D9CFE6FFE1CF2F
:101E5000D9FF020EE126DF6AFB0EDBCF10F0FC0E8D
:101E6000DBCF11F0FD0EDBCF12F0FE0EDBCF13F057
:101E7000105011101210131005E1300EE66E20DF25
:101E8000E552F4D0D950FB0FE96EFF0EDA20EA6E6E
:101E9000D890030EEB50000A08E6000EEE5C000E30
:101EA000EE58000EEE58000EEE5815E22D0EE66EBE
:101EB00007DFE552D950FB0FE96EFF0EDA20EA6E1C
:101EC000000EEE6CEF1EEE22EF1EEE22EF1EEF2252
:101ED000ED52ED52ED52DE52070EDD6E010EDBCFFC
:101EE00010F0000EE76E1018E8AE02D0103403D0E8
:101EF000E750D880105401E3B9D0010EDB04146E12
:101F0000156A14BE156814C0E6FF15C0E6FF0A0E78
:101F1000E66EE66A29DFE552E552E552E55206C073
:101F200010F007C011F008C012F009C013F006C08D
:101F30000BF007C00CF008C00DF009C00EF0FB0E4E
:101F4000DBCF06F0FC0EDBCF07F0FD0EDBCF08F099
:101F5000FE0EDBCF09F086EC1FF0065007100810CC
:101F6000091041E0010EDF6EDB04186E196A18BE1D
:101F7000196818C0E6FF19C0E6FF0A0EE66EE66AA9
:101F8000F3DEE552E552E552E55206C014F007C013
:101F900015F008C016F009C017F006C00BF007C016
:101FA0000CF008C00DF009C00EF0FB0EDBCF06F000
:101FB000FC0EDBCF07F0FD0EDBCF08F0FE0EDBCF13
:101FC00009F086EC1FF006C010F007C011F008C041
:101FD00012F009C013F0300E1026000E112212224A
:101FE0001322105003D0DF5004E0300EE66E68DE9E
:101FF000E552010EDB04146E156A14BE156814C098
:10200000E6FF15C0E6FF0A0EE66EE66AADDEE552B3
:10201000E552E552E55206C010F007C011F008C0C5
:1020200012F009C013F0D950FB0FE96EFF0EDA2051
:10203000EA6E06C00BF007C00CF008C00DF009C036
:102040000EF0EECF06F0EECF07F0EECF08F0EFCFB8
:1020500009F086EC1FF005C0EDFF04C0EDFF03C0E2
:10206000EDFF02C0EFFF010EDB0638D7020EE15C88
:1020700002E2E16AE552E16EE552E7CFD9FF1200D4
:10208000D9CFE6FFE1CFD9FFFD0EDBCFE6FFFE0E95
:10209000DBCFE6FF42DEE552E552D950F90FE96E9B
:1020A000FF0EDA20EA6EEECFE6FFEECFE6FFEECFD0
:1020B000E6FFEFCFE6FFC9DEE552E552E552E55215
:1020C000E552E7CFD9FF1200D9CFE6FFE1CFD9FF24
:1020D000FD0EDBCFE6FFFE0EDBCFE6FF1EDEE55298
:1020E000E552FB0EDBCFE6FFFC0EDBCFE6FFF5DDB6
:1020F000E552E552E552E7CFD9FF1200D9CFE6FF0E
:10210000E1CFD9FFADC110F0AEC111F0040ED890EF
:1021100010361136E806FBE1410E10260F0E112293
:1021200010500101AF25E96E1150B021EA6EFE0E8C
:10213000DBCFEFFFAF2B000EB023E552E7CFD9FF87
:102140001200D9CFE6FFE1CFD9FFE652DF6ADFCF39
:1021500010F0100EE76E1018E8AE02D0E73402D08F
:10216000E750105C18E2DFCFE9FFEA6AE9BEEA68EF
:10217000410EE9260F0EEA22200EEF6EDFCFE9FFB7
:10218000EA6AE9BEEA68510EE9260F0EEA22200E3D
:10219000EF6EDF2ADCD7E552E552E7CFD9FF120018
:1021A000D9CFE6FFE1CFD9FFE6520F014051030A34
:1021B00052E0010A36E0030A1AE0010A67E1E66A22
:1021C000E66AABDDE552E552DF6A080EDF5C0CE241
:1021D000DF50EA6A410FE96E0F0EEA22EF50E66E19
:1021E0006FDDE552DF2AF1D70F01010E32D0080E64
:1021F000E66EE66A92DDE552E552DF6A080EDF5CC4
:102200000DE2080EDF24EA6A410FE96E0F0EEA22A2
:10221000EF50E66E55DDE552DF2AF0D70F01020ED2
:1022200018D0E66A010EE66E78DDE552E552DF6A07
:10223000080EDF5C0CE2DF50EA6A510FE96E0F0E08
:10224000EA22EF50E66E3CDDE552DF2AF1D70F01BE
:10225000030E406F1CD0080EE66E010EE66E5DDDCB
:10226000E552E552DF6A080EDF5C0DE2080EDF245E
:10227000EA6A510FE96E0F0EEA22EF50E66E20DD9A
:10228000E552DF2AF0D70F01406B01D0406BE552D9
:10229000E552E7CFD9FF1200D9CFE6FFE1CFD9FF52
:1022A000E6520F014051010A1BE0010A32E1E66AE1
:1022B000E66A33DDE552E552DF6A100EDF5C0CE2C0
:1022C000DF50EA6A410FE96E0F0EEA22EF50E66E28
:1022D000F7DCE552DF2AF1D70F01010E406F1AD06B
:1022E000E66A010EE66E19DDE552E552DF6A100E70
:1022F000DF5C0CE2DF50EA6A510FE96E0F0EEA2252
:10230000EF50E66EDDDCE552DF2AF1D70F01406BBE
:1023100001D0406BE552E552E7CFD9FF1200D9CF8B
:10232000E6FFE1CFD9FFE652E66AE66AF6DCE5525F
:10233000E552DF6A100EDF5C0CE2DF50EA6A410F03
:10234000E96E0F0EEA22EF50E66EBADCE552DF2AA4
:10235000F1D7E66A010EE66EE0DCE552E552DF6A8F
:10236000100EDF5C0CE2DF50EA6A510FE96E0F0ECF
:10237000EA22EF50E66EA4DCE552DF2AF1D7E552FF
:10238000E552E7CFD9FF1200D9CFE6FFE1CFD9FF61
:10239000FE0EDB50010B0101AD6FAE6BFD0EDB508D
:1023A0000F0BAF6FB06BFC0EDB500A0802E1610E41
:1023B00005D0FC0EDB500D0805E1640EF36EFC0E3B
:1023C000F3CFDBFFADC110F0AEC111F0040ED89019
:1023D00010361136E806FBE1410E10260F0E1122D1
:1023E00010500101AF25E96E1150B021EA6EFC0ECC
:1023F000DBCFEFFFE552E7CFD9FF1200D9CFE6FFE1
:10240000E1CFD9FF020EE126DF6AFE0EDB50010BA1
:102410000101AD6FAE6BFD0EDB500F0BAF6FB06BFC
:10242000F90EDBCF10F0FA0EDBCF11F0FB0EDBCF95
:1024300012F0FC0EDBCF13F010501110121013101D
:1024400005E1300EE66E5ADEE552F5D0D950F90FAF
:10245000E96EFF0EDA20EA6ED890030EEB50000A08
:1024600008E6000EEE5C000EEE58000EEE58000E70
:10247000EE5815E22D0EE66E41DEE552D950F90F09
:10248000E96EFF0EDA20EA6E000EEE6CEF1EEE2211
:10249000EF1EEE22EF1EEF22ED52ED52ED52DE5214
:1024A000070EDD6E010EDBCF10F0000EE76E101888
:1024B000E8AE02D0103403D0E750D880105401E3C6
:1024C000BAD0010EDB04146E156A14BE156814C070
:1024D000E6FF15C0E6FF0A0EE66EE66A45DCE55249
:1024E000E552E552E55206C010F007C011F008C0F1
:1024F00012F009C013F006C00BF007C00CF008C0C2
:102500000DF009C00EF0F90EDBCF06F0FA0EDBCFAE
:1025100007F0FB0EDBCF08F0FC0EDBCF09F086ECFA
:102520001FF0065007100810091041E0010EDF6E81
:10253000DB04186E196A18BE196818C0E6FF19C0C6
:10254000E6FF0A0EE66EE66A0FDCE552E552E5525A
:10255000E55206C014F007C015F008C016F009C017
:1025600017F006C00BF007C00CF008C00DF009C052
:102570000EF0F90EDBCF06F0FA0EDBCF07F0FB0E04
:10258000DBCF08F0FC0EDBCF09F086EC1FF006C0B5
:1025900010F007C011F008C012F009C013F0300E9F
:1025A0001026000E112212221322105003D0DF50E9
:1025B00004E0300EE66EA2DDE552010EDB04146E7F
:1025C000156A14BE156814C0E6FF15C0E6FF0A0EB2
:1025D000E66EE66AB4EC0EF0E552E552E552E552DD
:1025E00006C010F007C011F008C012F009C013F0C7
:1025F000D950F90FE96EFF0EDA20EA6E06C00BF033
:1026000007C00CF008C00DF009C00EF0EECF06F0C8
:10261000EECF07F0EECF08F0EFCF09F086EC1FF019
:1026200005C0EDFF04C0EDFF03C0EDFF02C0EFFFEA
:10263000010EDB0637D7020EE15C02E2E16AE552E9
:10264000E16EE552E7CFD9FF1200D9CFE6FFE1CF27
:10265000D9FFFE0EDB50010B0101AD6FAE6BFD0E1D
:10266000DB500F0BAF6FB06BFB0EDBCFF6FFFC0E3A
:10267000DBCFF7FF0800F5500FE0FB0EDBCFF6FFD6
:10268000DB2AFC0EDBCFF7FF01E3DB2A0800F55065
:10269000E66E34DDE552E8D7E552E7CFD9FF120008
:1026A0000F0E946E82681200070E9410946EDF0E67
:1026B0009414946E82681200D9CFE6FFE1CFD9FF5F
:1026C000040EE126DE6ADD6ADECF10F0DDCF11F008
:1026D000D890115004E6040E105C000E115801E36E
:1026E00090D0DECFE9FFDDCFEAFF680EE926010ECC
:1026F000EA22EF1C826E020EDB6A030EDB6A020E18
:10270000DBCF10F0030EDBCF11F0D890115004E6B0
:10271000040E105C000E11586EE2020EDBCFE9FFD2
:10272000030EDBCFEAFF6C0EE926010EEA22EF5022
:1027300082143FE1DECF14F0DDCF15F0D8901436CF
:102740001536D89014361536020EDB501424E96E77
:10275000030EDB501520EA6ED890E936EA36480EB3
:10276000E926010EEA22EECF12F0EFCF13F0010EB0
:102770001226000E1322DECF10F0DDCF11F0D8901C
:1027800010361136D89010361136020EDB50102458
:10279000E96E030EDB501120EA6ED890E936EA3676
:1027A000480EE926010EEA2212C0EEFF13C0EDFF2B
:1027B0001BD0DECF10F0DDCF11F0D89010361136DF
:1027C000D89010361136020EDB501024E96E030E3D
:1027D000DB501120EA6ED890E936EA36480EE92639
:1027E000010EEA22EE6AED6A020EDB2A030E01E216
:1027F00086D7DB2A84D7DF2A010E01E265D7DB2AE0
:1028000063D7040EE15C02E2E16AE552E16EE55253
:10281000E7CFD9FF1200D9CFE6FFE1CFD9FF040EF1
:10282000E126DE6ADD6ADECF10F0DDCF11F0D89050
:10283000115004E6020E105C000E115801E391D015
:10284000DECFE9FFDDCFEAFF680EE926010EEA22BE
:10285000EF1C8214826E020EDB6A030EDB6A020E2C
:10286000DBCF10F0030EDBCF11F0D890115004E64F
:10287000040E105C000E11586EE2020EDBCFE9FF71
:10288000030EDBCFEAFF6C0EE926010EEA22EF50C1
:1028900082143FE1DECF14F0DDCF15F0D89014366E
:1028A0001536D89014361536020EDB501424E96E16
:1028B000030EDB501520EA6ED890E936EA36480E52
:1028C000E926010EEA22EECF12F0EFCF13F0010E4F
:1028D0001226000E1322DECF10F0DDCF11F0D890BB
:1028E00010361136D89010361136020EDB501024F7
:1028F000E96E030EDB501120EA6ED890E936EA3615
:10290000480EE926010EEA2212C0EEFF13C0EDFFC9
:102910001BD0DECF10F0DDCF11F0D890103611367D
:10292000D89010361136020EDB501024E96E030EDB
:10293000DB501120EA6ED890E936EA36480EE926D7
:10294000010EEA22EE6AED6A020EDB2A030E01E2B4
:1029500086D7DB2A84D7DF2A010E01E264D7DB2A7F
:1029600062D7040EE15C02E2E16AE552E16EE552F3
:10297000E7CFD9FF1200D9CFE6FFE1CFD9FF040E90
:10298000E126DE6ADD6A020EDB6A030EDB6A010104
:10299000681D8214826E020EDB6A030EDB6A020E71
:1029A000DBCF10F0030EDBCF11F0D890115004E60E
:1029B000040E105C000E11586EE2020EDBCFE9FF30
:1029C000030EDBCFEAFF6C0EE926010EEA22EF5080
:1029D00082143FE1DECF14F0DDCF15F0D89014362D
:1029E0001536D89014361536020EDB501424E96ED5
:1029F000030EDB501520EA6ED890E936EA36480E11
:102A0000E926010EEA22EECF12F0EFCF13F0010E0D
:102A10001226000E1322DECF10F0DDCF11F0D89079
:102A200010361136D89010361136020EDB501024B5
:102A3000E96E030EDB501120EA6ED890E936EA36D3
:102A4000480EE926010EEA2212C0EEFF13C0EDFF88
:102A50001BD0DECF10F0DDCF11F0D890103611363C
:102A6000D89010361136020EDB501024E96E030E9A
:102A7000DB501120EA6ED890E936EA36480EE92696
:102A8000010EEA22EE6AED6A020EDB2A030E01E273
:102A900086D7DB2A84D7040EE15C02E2E16AE552C4
:102AA000E16EE552E7CFD9FF1200D9CFE6FFE1CFC3
:102AB000D9FF040EE126DE6ADD6A020EDB6A030E30
:102AC000DB6A010EDE6EDD6ADECFE9FFDDCFEAFFF5
:102AD000680EE926010EEA22EF1C8214826E020EB5
:102AE000DB6A030EDB6A020EDBCF10F0030EDBCFD6
:102AF00011F0D890115004E6030E105C000E11582E
:102B00006EE2020EDBCFE9FF030EDBCFEAFF6C0EB5
:102B1000E926010EEA22EF5082143FE1DECF14F0E5
:102B2000DDCF15F0D89014361536D89014361536FA
:102B3000020EDB501424E96E030EDB501520EA6E02
:102B4000D890E936EA36480EE926010EEA22EECFA1
:102B500012F0EFCF13F0010E1226000E1322DECF7B
:102B600010F0DDCF11F0D89010361136D890103615
:102B70001136020EDB501024E96E030EDB501120DB
:102B8000EA6ED890E936EA36480EE926010EEA22C6
:102B900012C0EEFF13C0EDFF1BD0DECF10F0DDCF73
:102BA00011F0D89010361136D89010361136020E2A
:102BB000DB501024E96E030EDB501120EA6ED89032
:102BC000E936EA36480EE926010EEA22EE6AED6A97
:102BD000020EDB2A030E01E286D7DB2A84D7040E1D
:102BE000E15C02E2E16AE552E16EE552E7CFD9FF2E
:102BF0001200D9CFE6FFE1CFD9FF040EE126DE6A4D
:102C0000DD6ADECF10F0DDCF11F0FD0EDBCF12F06C
:102C1000FE0EDBCF13F011501318E8AE02D01334C0
:102C200004D01250105C135011581DE2020EDB6AE2
:102C3000030EDB6A020EDBCF10F0030EDBCF11F0C8
:102C4000D890115004E6EE0E105C000E115806E20A
:102C5000020EDB2A030EEEE3DB2AECD7DF2A010E9D
:102C6000D0E3DB2ACED7040EE15C02E2E16AE55252
:102C7000E16EE552E7CFD9FF1200D9CFE6FFE1CFF1
:102C8000D9FF040EE126DE6ADD6ADECF10F0DDCF6B
:102C900011F0D890115004E6040E105C000E11588B
:102CA00075E2DECFE9FFDDCFEAFF680EE926010E0F
:102CB000EA22EF1C826E020EDB6A030EDB6A020E52
:102CC000DBCF10F0030EDBCF11F0D890115004E6EB
:102CD000040E105C000E11584AE2DECF10F0DDCF7A
:102CE00011F0D89010361136D89010361136020EE9
:102CF000DB501024E96E030EDB501120EA6ED890F1
:102D0000E936EA36480EE926010EEA22EE6AED6A55
:102D1000020EDBCFE9FF030EDBCFEAFF6C0EE926E4
:102D2000010EEA22EF5082141CE1DECF10F0DDCF5D
:102D300011F0D89010361136D89010361136020E98
:102D4000DB501024E96E030EDB501120EA6ED890A0
:102D5000E936EA36480EE926010EEA22010EEE6E49
:102D6000ED6A020EDB2A030EAAE3DB2AA8D7825003
:102D7000826EE80EE66E030EE66E3BDFE552E5522C
:102D8000DF2A010E01E281D7DB2A7FD7040EE15C46
:102D900002E2E16AE552E16EE552E7CFD9FF1200A7
:102DA000D9CFE6FF040EE12684B005D00101482BFF
:102DB000000E492303D00101486B496B84B204D053
:102DC0004A2B000E4B2302D04A6B4B6B84B404D0C9
:102DD0004C2B000E4D2302D04C6B4D6B82B004D0B7
:102DE0004E2B000E4F2302D04E6B4F6B82B204D09D
:102DF000502B000E512302D0506B516B82B404D083
:102E0000522B000E532302D0526B536B82BA04D064
:102E1000542B000E552302D0546B556B81B004D057
:102E2000562B000E572302D0566B576B040EE15CF5
:102E300002E2E16AE552E16EE552E7CFD9FF120006
:102E4000070E9610966E270E9410946E010E931036
:042E5000936E12006B
:0C2E5400D9CFE6FFE1CFD9FFD59EFD0EDF
:102E6000DBCF70F1FE0EDBCF71F1D59C13681468D7
:102E7000156A70C116F071C117F0186A1650135C0C
:102E8000106E17501458116E18501558126E0C6AA7
:102E9000010E0D6E0E6A10C007F011C008F012C0CE
:102EA00009F08AEC1EF00350D66E13681468156A98
:102EB00070C116F071C117F0186A1650135C106ECD
:102EC00017501458116E18501558126E0C6A010ED6
:102ED0000D6E0E6A10C007F011C008F012C009F0A4
:102EE0008AEC1EF007C010F008C011F009C012F003
:102EF0000750D76ED59AD586F28AF294F184D58E92
:102F0000E552E7CFD9FF1200D59E1200136814686E
:102F1000156A70C116F071C117F0186A1650135C6B
:102F2000106E17501458116E18501558126E0C6A06
:102F3000010E0D6E0E6A10C007F011C008F012C02D
:102F400009F08AEC1EF00350D66E13681468156AF7
:102F500070C116F071C117F0186A1650135C106E2C
:102F600017501458116E18501558126E0C6A010E35
:102F70000D6E0E6A10C007F011C008F012C009F003
:102F80008AEC1EF007C010F008C011F009C012F062
:102F90000750D76ED58E1200D9CFE6FFE1CFD9FF0B
:102FA000CD90FD0EDBCF72F1FE0EDBCF73F1136817
:102FB0001468156A72C116F073C117F0186A1650BA
:102FC000135C106E17501458116E18501558126E6D
:102FD0000C6A010E0D6E0E6A10C007F011C008F0E9
:102FE00012C009F08AEC1EF00750CF6E1368146807
:102FF000156A72C116F073C117F0186A1650135C87
:10300000106E17501458116E18501558126E0C6A25
:10301000010E0D6E0E6A10C007F011C008F012C04C
:1030200009F08AEC1EF003C010F004C011F005C0D6
:1030300012F00350CE6E9D809E909F90CD8ECD8CD1
:10304000CD98CD9ACD96CD92CD80E552E7CFD9FFE0
:10305000120013681468156A72C116F073C117F074
:10306000186A1650135C106E17501458116E1850D1
:103070001558126E0C6A010E0D6E0E6A10C007F024
:1030800011C008F012C009F08AEC1EF00750CF6E94
:1030900013681468156A72C116F073C117F0186AC4
:1030A0001650135C106E17501458116E18501558A6
:1030B000126E0C6A010E0D6E0E6A10C007F011C080
:1030C00008F012C009F08AEC1EF003C010F004C032
:1030D00011F005C012F00350CE6ECD801200CD90DD
:1030E0001200D9CFE6FFE1CFD9FFCA94CC6AFE0E19
:1030F000DB500101746F756BCB6E9D829E929F9227
:10310000CA90CA92CA84E552E7CFD9FF120074C1AF
:10311000CBFFCA841200CA941200D9CFE6FFE1CFD8
:10312000D9FFB190FD0EDBCF76F1FE0EDBCF77F14C
:1031300013681468156A76C116F077C117F0186A1B
:103140001650135C106E17501458116E1850155805
:10315000126E0C6A010E0D6E0E6A10C007F011C0DF
:1031600008F012C009F08AEC1EF00750B36E136825
:103170001468156A76C116F077C117F0186A1650F0
:10318000135C106E17501458116E18501558126EAB
:103190000C6A010E0D6E0E6A10C007F011C008F027
:1031A00012C009F08AEC1EF003C010F004C011F048
:1031B00005C012F00350B26EA082A192A292B18E0D
:1031C000B198B19AB192B180E552E7CFD9FF120020
:1031D00013681468156A76C116F077C117F0186A7B
:1031E0001650135C106E17501458116E1850155865
:1031F000126E0C6A010E0D6E0E6A10C007F011C03F
:1032000008F012C009F08AEC1EF00350B26E136889
:103210001468156A76C116F077C117F0186A16504F
:10322000135C106E17501458116E18501558126E0A
:103230000C6A010E0D6E0E6A10C007F011C008F086
:1032400012C009F08AEC1EF007C010F008C011F09F
:1032500009C012F00750B36EB1801200B190120095
:103260000101802B000E81238851805D8951815995
:1032700004E3806B816B010E786F12000101822BD9
:10328000000E83238A51825D8B51835904E3826B44
:10329000836B010E796F12000101842B000E8523D0
:1032A0008C51845D8D51855904E3846B856B010ECF
:1032B0007A6F12000101862B000E87238E51865DE6
:1032C0008F51875904E3866B876B010E7B6F120069
:1032D000D9CFE6FFE1CFD9FFFD0EDBCF88F1FE0E9F
:1032E000DBCF89F10101806B816B786BE552E7CF11
:1032F000D9FF1200D9CFE6FFE1CFD9FFFD0EDBCF1A
:103300008AF1FE0EDBCF8BF1050E0D6E0E6A8AC1BF
:1033100008F08BC109F064EC1EF008C08AF109C006
:103320008BF10101826B836B796BE552E7CFD9FF9B
:103330001200D9CFE6FFE1CFD9FFFD0EDBCF8EF132
:10334000FE0EDBCF8FF10A0E0D6E0E6A8EC108F0F5
:103350008FC109F064EC1EF008C08EF109C08FF136
:103360000101866B876B7B6BE552E7CFD9FF1200BB
:10337000D9CFE6FFE1CFD9FF020EE126FE0EDB50EA
:103380000F0BDF6EFE0EDB380F0B0A0D010EF3CFB5
:10339000DBFFDB50DF24106E020EE15C02E2E16A2B
:1033A000E552E16E1050E552E7CFD9FF1200D9CFB8
:1033B000E6FFE1CFD9FF020EE1260A0E106E0E6E77
:1033C000FE0EDBCF09F017EC20F00550DF6E0A0E81
:1033D000106E0E6EFE0EDBCF09F017EC20F00950D8
:1033E000100D010EF3CFDBFFDB50DF24106E020E59
:1033F000E15C02E2E16AE552E16E1050E552E7CF8E
:10340000D9FF120094869488C79EC79CC690C69226
:10341000C694C686310EC86EC68A1200D9CFE6FFA2
:10342000E1CFD9FF9E96FE0EDB50D00FC96E9EA64F
:10343000FED7E552E7CFD9FF1200D9CFE6FFE1CFA3
:10344000D9FF9E96FE0EDB50A00FC96E9EA6FED73A
:10345000E552E7CFD9FF12009E96C5809EA6FED703
:1034600012009E96C5849EA6FED71200D9CFE6FF15
:10347000E1CFD9FF9E96FE0EDB50C96E9EA6FED709
:10348000E552E7CFD9FF12009E96C5869EA6FED7CD
:10349000C95012009E96C59AC5889EA6FED71200F6
:1034A0009E96C58AC5889EA6FED71200D9CFE6FF94
:1034B000E1CFD9FFD1DFE66AB1DFE5520101010EAC
:1034C000B66FE85004E0C550400BFAE0F8D7FE0EA6
:1034D000DBCFE6FFCBDFE5520101010EB66FE8500E
:1034E00004E0C550400BFAE0F8D7FD0EDBCFE6FF55
:1034F0005EDFE552E66EBADFE5520101010EB66FFE
:10350000E85004E0C550400BFAE0F8D7AADFE552D6
:10351000E7CFD9FF1200D9CFE6FFE1CFD9FF9CDF7B
:10352000E66A8BDFE5520101010EB66FE85004E058
:10353000C550400BFAE0F8D7FE0EDBCFE6FF96DF72
:10354000E5520101010EB66FE85004E0C550400B92
:10355000FAE0F8D7FD0EDBCF10F0FE0EDBCF11F056
:103560000001116A1050E66E81DFE5520101010E83
:10357000B66FE85004E0C550400BFAE0F8D7FC0EF7
:10358000DBCFE6FF73DFE5520101010EB66FE850B5
:1035900004E0C550400BFAE0F8D763DFE552E7CF0F
:1035A000D9FF1200D9CFE6FFE1CFD9FFE65254DFB1
:1035B000E66A34DFE5520101010EB66FE85004E01F
:1035C000C550400BFAE0F8D7FE0EDBCFE6FF4EDF2A
:1035D000E5520101010EB66FE85004E0C550400B02
:1035E000FAE0F8D739DF010EE66E18DFE552010187
:1035F000010EB66FE85004E0C550400BFAE0F8D772
:1036000043DFDF6EDFCFE6FFB3DEE552DF6EDF5074
:10361000E552E552E7CFD9FF1200D9CFE6FFE1CF5F
:10362000D9FFE65219DFE66A08DFE5520101010E13
:10363000B66FE85004E0C550400BFAE0F8D7FE0E34
:10364000DBCFE6FF13DFE5520101010EB66FE85054
:1036500004E0C550400BFAE0F8D7FD0EDBCF10F0C8
:10366000FE0EDBCF11F00001116A1050E66EFEDE97
:10367000E5520101010EB66FE85004E0C550400B61
:10368000FAE0F8D7E9DE010EE66ED7DEE552010179
:10369000010EB66FE85004E0C550400BFAE0F8D7D1
:1036A000F3DEDF6EDF50E552E552E7CFD9FF1200BF
:1036B000F28ED08EF28C1200F19CF292F2881200FF
:1036C000D8CFE4FFE0CFE4FFE46EDACFE4FFE2CF4F
:1036D000DAFFE9CFE4FFEACFE4FFF6CFE4FFF7CF6C
:1036E000E4FFF5CFE4FFF3CFE4FFF4CFE4FFFACF3C
:1036F000E4FF00EE00F0100EE80403E3EECFE4FF79
:10370000FBD700EE10F00A0EE80403E3EECFE4FF6F
:10371000FBD7E652F2A407D084EC17F0F29486ECC3
:1037200017F030EC19F09EA007D06FEC18F09E90C7
:1037300029EC18F03EEC19F09EA207D08BEC18F0A3
:103740009E9287EC18F04CEC19F0A1A207D02EEC59
:1037500019F0A192E8EC18F05AEC19F0F2B2F292DA
:103760009EAA03D09E9AC9EC1DF0E55200EE19F016
:103770000A0EE80403E3E5CFEDFFFBD700EE0FF000
:10378000100EE80403E3E5CFEDFFFBD7E5CFFAFF2A
:10379000E5CFF4FFE5CFF3FFE5CFF5FFE5CFF7FF8A
:1037A000E5CFF6FFE5CFEAFFE5CFE9FFE5CFDAFFAA
:1037B000E550E5CFE0FFE5CFD8FF1000DACFE4FF1A
:1037C000E2CFDAFFE9CFE4FFEACFE4FFF6CFE4FF90
:1037D000F7CFE4FFF5CFE4FFF3CFE4FFF4CFE4FF4E
:1037E000FACFE4FF00EE00F0100EE80403E3EECFA2
:1037F000E4FFFBD700EE10F00A0EE80403E3EECF7F
:10380000E4FFFBD7E652F2A407D084EC17F0F29461
:1038100086EC17F030EC19F09EA007D06FEC18F092
:103820009E9029EC18F03EEC19F09EA207D08BEC8C
:1038300018F09E9287EC18F04CEC19F0A1A207D07A
:103840002EEC19F0A192E8EC18F05AEC19F0F2B253
:10385000F2929EAA03D09E9AC9EC1DF0E55200EEAA
:1038600019F00A0EE80403E3E5CFEDFFFBD700EE05
:103870000FF0100EE80403E3E5CFEDFFFBD7E5CF33
:10388000FAFFE5CFF4FFE5CFF3FFE5CFF5FFE5CF96
:10389000F7FFE5CFF6FFE5CFEAFFE5CFE9FFE5CF9C
:0438A000DAFF11003A
:0C38A400454E544552204E4557205041DF
:1038B00053532000332E5041535320535045434916
:1038C000414C00322E50415353204D414E55414CF6
:1038D00000312E50415353204155544F004348412D
:1038E0004E474520504153530057524F4E472050AA
:1038F000415353574F5244002A00454E54455220DD
:1039000050415353574F524420200059454C4C4F7F
:1039100057204C4947485400322E534554205048B4
:10392000415345203200312E5345542050484153D5
:1039300045203100534554204155544F33005345E1
:1039400054204155544F3200534554204155544F53
:103950003100332E4155544F203300322E415554FF
:103960004F203200312E4155544F2031004D454EED
:1039700055204155544F00342E4348414E47452071
:103980005041535300332E5350454349414C204D31
:103990004F444500322E4D414E55414C204D4F4431
:1039A0004500312E4155544F204D4F4445003E00B7
:1039B0004D454E55005048415345325F59454C4C9A
:1039C0004F573A2020005048415345315F524544FB
:1039D0003A2020005048415345325F475245454EFA
:1039E0003A202020005048415345315F5245443A27
:1039F000202020005048415345315F59454C4C4FE1
:103A0000573A2020005048415345325F5245443ACE
:103A10002020005048415345315F475245454E3ABA
:103A2000202020005048415345325F5245443A20FF
:103A300020200020202020202020202020202020A6
:043A40002020200022
:0C3A4400B06A810EAF6EAC8AAC94B886FC
:103A5000AC98AB8EAB889E9A9D8A9F9A949C948ECC
:103A60001200D9CFE6FFE1CFD9FF040EE126DE6ACE
:103A7000DD6ADECF10F0DDCF11F0FD0EDBCF12F0EE
:103A8000FE0EDBCF13F011501318E8AE02D0133442
:103A900004D01250105C135011581DE2020EDB6A64
:103AA000030EDB6A020EDBCF10F0030EDBCF11F04A
:103AB000D890115004E6EE0E105C000E115806E28C
:103AC000020EDB2A030EEEE3DB2AECD7DF2A010E1F
:103AD000D0E3DB2ACED7040EE15C02E2E16AE552D4
:103AE000E16EE552E7CFD9FF1200D9CFE6FFE1CF73
:103AF000D9FF9EA8FED7FE0EDB50AD6E9E98E55214
:103B0000E7CFD9FF1200D9CFE6FFE1CFD9FFFD0EF5
:103B1000DBCFE9FFFE0EDBCFEAFFEF5010E0FD0E3A
:103B2000DBCFE9FFFE0EDBCFEAFFEF50E66EDDDF15
:103B3000E552FD0EDB2AFE0EEAE3DB2AE8D7E5526A
:103B4000E7CFD9FF1200D9CFE6FFE1CFD9FFFD0EB5
:103B5000DBCFF6FFFE0EDBCFF7FF0800F55015E0D8
:103B6000FD0EDBCFF6FFFE0EDBCFF7FF0800F550B2
:103B7000E66EBBDFE552FD0EDBCFF6FFDB2AFE0E65
:103B8000DBCFF7FFE4E3DB2AE2D7E552E7CFD9FF4B
:063B90001200CBEF1DF056
:0A3B9600D9CFE6FFE1CFD9FFE652D8
:103BA000AE50DF6EDFCFE6FF75EC1DF0E552010190
:103BB0009251050A2AE0010A21E0070A11E0010AF0
:103BC0000AE0020A02E0010A2AE1FE0EDF5C28E1B7
:103BD000956B020E22D0FE0EDF5C15E1030E1DD0A8
:103BE0009551EA6A810FE96E000EEA22DFCFEFFFFE
:103BF000952B9751955D14E3040E0FD0FF0EDF5CFB
:103C000002E1050E0AD0010E08D0FF0EDF5C04E1D0
:103C1000010E936F926B04D0010E926F01D0926BE4
:103C2000E552E552E7CFD9FF1200120001019305DA
:103C30004AE1330EE66E3A0EE66EE66AE66A25EC77
:103C400013F0E552E552E552E5520001806B0101A7
:103C500097510001805D21E28051EA6A810FE96E8F
:103C6000000EEA22EFCF10F0116A126A136A10C038
:103C7000E6FF11C0E6FF12C0E6FF13C0E6FF030E29
:103C80008003F350E66EE66AFEEC11F0146E060E49
:103C9000E15E14500001802BDAD792C110F0116A56
:103CA000126A136A92C1E6FF11C0E6FF12C0E6FF76
:103CB00013C0E6FF0F0EE66EE66AFEEC11F0146E1E
:083CC000060EE15E1450120033
:083CC800006A0EAE6DEF1EF064
:103CD0000D6C0E1EE86A0E22001E09AE75EF1EF076
:103CE000086C091EE86A0922001EE3EC1FF009BEF9
:103CF00085EF1EF000AE000C086C091EE86A092270
:103D0000046C051EE86A0522000C00BE7CEF1EF064
:103D10000188FF0C006A0EAE95EF1EF00C6C0D1EB4
:103D20000E1EE86A0D220E22001E09AE9FEF1EF045
:103D3000076C081E091EE86A08220922001EAAEC68
:103D40001FF009BEB2EF1EF000AE000C076C081E9B
:103D5000091EE86A08220922036C041E051E0422BB
:0E3D60000522000C00BEA6EF1EF00188FF0C2D
:023D6E001E0E27
:103D7000F66E000EF76E000EF86E01010900F550A8
:103D8000A86F0900F550A96F03E1A86701D03DD0E5
:103D90000900F550A36F0900F550A46F0900F55014
:103DA000A56F09000900F550E96E0900F550EA6EAB
:103DB000090009000900F550A66F0900F550A76F2A
:103DC00009000900F6CFAAF1F7CFABF1F8CFACF1BB
:103DD000A3C1F6FFA4C1F7FFA5C1F8FF0101A653D7
:103DE00002E1A75307E00900F550EE6EA607F8E2DE
:103DF000A707F9D7AAC1F6FFABC1F7FFACC1F8FF1F
:0C3E00000101A807000EA95BBFD712004B
:043E0C00010E926EA3
:103E10000E0EC16EC26A040EC06EC2801200D9CFEF
:103E2000E6FFE1CFD9FF020EE126DE6ADD6AC2823B
:103E3000C2B2FED7C450DE6EDD6ADECF12F0DDCF37
:103E400013F0D89012361336D89012361336060E69
:103E5000C3CFE7FF070B04E0E742E79EE806FCE17B
:103E6000E7501224106E000E132010C0DEFFDD6E2E
:103E7000DECF61FFDDCF62FFDECF10F0DDCF11F0CE
:103E800010C0F3FF11C0F4FF020EE15C02E2E16A30
:0C3E9000E552E16EE552E7CFD9FF1200C9
:043E9C0006500B02BF
:103EA000F3CF02F0F4CF03F00C02F3500326000E20
:103EB000F420046E06500D02F3500426000EF42088
:103EC000056E06500E02F350052607500B02F35004
:103ED0000326F4500422000E052207500C02F35072
:103EE0000426F450052207500D02F3500526085011
:103EF0000B02F3500426F450052208500C02F35034
:0C3F0000052609500B02F35005261200A4
:043F0C00056A046AD4
:103F1000036A026A200EE76ED89006360736083626
:103F2000093602360336043605360B50025C0C5057
:103F300003580D5004580E50055809E30B50025E0B
:103F40000C50035A0D50045A0E50055A062AE72EFB
:043F5000E4D71200A0
:0C3F5400056A046A036A180EE76ED89034
:103F60000736083609360336043605360C50035C2E
:103F70000D5004580E50055807E30C50035E0D50C9
:0E3F8000045A0E50055A072AE72EEAD71200FF
:023F8E00CA94D3
:103F9000CA90CA829B0ECB6EBD98BD9ABE6ABD9C6C
:103FA000BD9EBD90BD92BD84BD869494CA8412000E
:103FB000D9CFE6FFE1CFD9FFFE0EDB50BE6EE55252
:063FC000E7CFD9FF12005B
:0A3FC600056A046A100EE76ED89039
:103FD00008360936043605360D50045C0E50055877
:103FE00005E30D50045E0E50055A082AE72EF0D75F
:023FF0001200BD
:0E3FF200800EF36E00EE00F00F0E01D81200EC
:10400000EA6002D0EE6AFCD7F350E9601200EE6A73
:02401000FCD7DB
:0E4012001EEE00F02EEE00F0F86A019CB7ECF6
:0E4020001EF003EC00F040EC00F0FBD71200A5
:02402E00056A21
:10403000080EE76ED890093605360E50055C02E38F
:0A404000056E092AE72EF7D71200DB
:06404A0000000000000070
:104050000000000000000000000000000000000060
:0A4060000000010001000100010052
:06406A0000000000000050
:0D4070000005050000000000000000000039
:03407D0001020439
:104080000810204080000000000000000000191708
:1040900003141C03000000000404040405050505C6
:1040A000060606060A000102034104050642070847
:1040B00009432A0045440000000000000000000100
:0540C0000001000100F9
:0B40C5000000000000000000101010C0
:1040D000101010101018181818181818181C1C1C7C
:1040E0001C1C1C1C1C1E1E1E1E1E1E1E1E1F1F1FF7
:1040F0001F1F1F1F1F000000000000000000000025
:1041000000000000000000000000000000000000AF
:10411000000000000000000000000000000000009F
:0641200000000000000099
:0A412600000000D00022222207252D
:104130000910000100000000000000000000000065
:01414000007E
:0F4141000000000000000000000000000000006F
:10415000000000000000000000000000000000005F
:0941600000102040800102040857
:020000040030CA
:0100010002FC
:0100020003FA
:010003001EDE
:010005008179
:010006008178
:010008000FE8
:01000900C036
:01000A000FE6
:01000B00E014
:01000C000FE4
:01000D0040B2
:00000001FF
